:100000000C9434000C9449000C9449000C94490061
:100010000C9449000C9449000C9449000C9449003C
:100020000C9449000C9449000C9449000C9449002C
:100030000C9449000C9449000C9449000C9449001C
:100040000C9449000C9449000C9449000C9449000C
:100050000C9449000C9449000C9449000C944900FC
:100060000C9449000C94490011241FBECFEFD8E036
:10007000DEBFCDBF11E0A0E0B1E0E0E6F6E002C0F7
:1000800005900D92A031B107D9F70E94F9000C94A8
:100090002E030C940000FC018FEF81838083838307
:1000A000828308950F931F93CF93DF9300D000D0E6
:1000B0001F92CDB7DEB7FC0114BC82E085BD109263
:1000C0006E0083B1816085B9209A2FEF80E792E0BE
:1000D000215080409040E1F700C0000083B18E7F46
:1000E00085B9AFE7BDEE20E0A150B0402040E1F778
:1000F00000C0000083B1816085B920981899FECFB7
:10010000189BFECF1899FECF60E070E0F894189B22
:10011000FECFA6B50A2F10E01899FECF26B530E025
:100120007894AB0183E0559547958A95E1F781E096
:1001300090E08C0F9D1F840F951FDC019C91990FFF
:100140002017310708F43395201B310BA1E0B0E0F4
:10015000AC0FBD1FA40FB51F2236310508F091600A
:100160009C936F5F7F4F6832710581F6189BFECFBD
:10017000498142832A8123839B8190838C8181835F
:1001800030E0240F311D290F311D280F311D4D8105
:1001900050E081E090E02417350711F480E090E012
:1001A0000F900F900F900F900F90DF91CF911F91B4
:1001B0000F910895FC0180810895FC0181810895CB
:1001C000CF93FC01C18120818C2F6AE00E94220321
:1001D000682F70E0620F711D072E000C880B990BC1
:1001E0000E94C302C7FD9058CF910895FC018281FF
:1001F0000895CF93DF93CDB7DEB7CD58D1090FB6B1
:10020000F894DEBF0FBECDBF60E071E0CE01019675
:100210000E94DE01CE018B579F4F0E944B002FEFB3
:1002200087EA91E6215080409040E1F700C000004D
:1002300000E81AE08CE0E82E9EE0F92E2DE0D22EA8
:10024000CE018B579F4F0E945200892B09F091C01D
:10025000CE018B579F4F0E94E00020E030E0A901C3
:100260000E94BC0287FF0CC0C657DF4FD882CA5815
:10027000D040CE018B579F4F0E94DD0080580AC0AE
:10028000C657DF4FF882CA58D040CE018B579F4FD8
:100290000E94DD00C357DF4F8883CD58D040CE0188
:1002A0008B579F4F0E94DA008A3070F0CE018B5737
:1002B0009F4F0E94DA00612F0E942203C557DF4F33
:1002C0008883CB58D04005C0C557DF4FF882CB5844
:1002D000D040CE018B579F4F0E94DA00612F0E94C1
:1002E00022039068C457DF4F9883CC58D040BE019A
:1002F00066577F4FCE0101960E9470022FEF87EA6A
:1003000091E6215080409040E1F700C00000CE010E
:100310008B579F4F0E94F6008A3070F0CE018B57AA
:100320009F4F0E94F600612F0E942203C657DF4FA5
:100330008883CA58D04005C0C657DF4FF882CA58D4
:10034000D040CE018B579F4F0E94F600612F0E9434
:100350002203C557DF4F9883CB58D040C457DF4F97
:100360001883CC58D040C357DF4FE882CD58D040D7
:1003700014C0C357DF4F0883CD58D040C457DF4F58
:100380000883CC58D040C557DF4F0883CB58D040A6
:10039000C657DF4F0883CA58D040BE0166577F4F0B
:1003A000CE0101960E9470022FEF87EA91E621505C
:1003B00080409040E1F700C0000042CF24B12660A9
:1003C00024B9FB01AB0140585F4F21912F3F31F021
:1003D000DC012D93CD01E417F507B9F7089583B13A
:1003E000826085B98FE891E00197F1F700C00000C5
:1003F00083B1846085B98FE891E00197F1F700C07F
:10040000000083B18B7F85B98FE891E00197F1F708
:1004100000C00000089583B18B7F85B98FE891E01B
:100420000197F1F700C0000083B1826085B98FE8C1
:1004300091E00197F1F700C0000083B1846085B9B5
:100440008FE891E00197F1F700C00000089588E07F
:1004500090E023B12D7F25B9EFE8F1E03197F1F776
:1004600000C0000023B160FD02C02B7F01C02460EA
:1004700025B9EFE8F1E03197F1F700C0000023B1B2
:10048000226025B9EFE8F1E03197F1F700C00000F4
:1004900066950197F1F683B18D7F85B98FE891E07C
:1004A0000197F1F700C0000083B1826085B9EFE8E1
:1004B000F1E03197F1F700C0000083B18B7F85B97F
:1004C0008FE891E00197F1F700C0000083B18D7FC4
:1004D00085B9EFE8F1E03197F1F700C00000089529
:1004E000EF92FF920F931F93CF93DF93EC017B0169
:1004F00084B1866084B9CE010E94EF0164E4CE012C
:100500000E942702CE010E940B02870180ECF82E88
:10051000CE010E94EF016F2DCE010E942702F8014B
:1005200021918F01822F90E027FF08C08C0F9D1F23
:10053000FC01E058F1096081606804C0FE01E80F29
:10054000F91F6081CE010E942702CE010E940B029A
:10055000F394F4ECFF12DCCFCE010E94EF016FE8C0
:10056000CE010E942702CE01DF91CF911F910F9102
:10057000FF90EF900C940B020E94FE0208F481E0C1
:100580000895E89409C097FB3EF490958095709586
:1005900061957F4F8F4F9F4F9923A9F0F92F96E9CF
:1005A000BB279395F695879577956795B795F11144
:1005B000F8CFFAF4BB0F11F460FF1BC06F5F7F4FE1
:1005C0008F4F9F4F16C0882311F096E911C07723F3
:1005D00021F09EE8872F762F05C0662371F096E8FC
:1005E000862F70E060E02AF09A95660F771F881FCB
:1005F000DAF7880F9695879597F90895990F00086F
:10060000550FAA0BE0E8FEEF16161706E807F907E4
:10061000C0F012161306E407F50798F0621B730B7F
:10062000840B950B39F40A2661F0232B242B252B00
:1006300021F408950A2609F4A140A6958FEF811DA3
:10064000811D0895991B79E004C0991F961708F041
:10065000961B881F7A95C9F780950895F894FFCF67
:100660003F065B4F666D7D077F6F63395C4000001E
:00000001FF
