S01200006B6164616932312D32322E7372656324
S11300000C9434000C943E000C943E000C943E007E
S11300100C943E000C943E000C943E000C943E0064
S11300200C943E000C943E000C943E000C943E0054
S11300300C943E000C943E000C943E000C943E0044
S11300400C943E000C943E000C943E000C943E0034
S11300500C943E000C943E000C943E000C943E0024
S11300600C943E000C943E0011241FBECFEFD8E048
S1130070DEBFCDBF0E94D5000C9471020C94000029
S1130080FC018FEF818380838383828308950F93A0
S11300901F93CF93DF9300D000D01F92CDB7DEB76C
S11300A0FC0114BC82E085BD10926E0083B18160B6
S11300B085B9209A2FEF80E792E02150804090404C
S11300C0E1F700C0000083B18E7F85B9AFE7BDEED4
S11300D020E0A150B0402040E1F700C0000083B10F
S11300E0816085B920981899FECF189BFECF189986
S11300F0FECF60E070E0F894189BFECFA6B50A2FFF
S113010010E01899FECF26B530E07894AB0183E077
S1130110559547958A95E1F781E090E08C0F9D1FF6
S1130120840F951FDC019C91990F2017310708F467
S11301303395201B310BA1E0B0E0AC0FBD1FA40F21
S1130140B51F2236310508F091609C936F5F7F4F95
S11301506832710581F6189BFECF498142832A815A
S113016023839B8190838C81818330E0240F311D14
S1130170290F311D280F311D4D8150E081E090E0A1
S11301802417350711F480E090E00F900F900F9042
S11301900F900F90DF91CF911F910F910895FC0163
S11301A080810895FC0182810895CF93DF93CDB7B8
S11301B0DEB7CC58D1090FB6F894DEBF0FBECDBF61
S11301C0CE0101960E947E01CE018B579F4F0E9463
S11301D040002FEF87EA91E6215080409040E1F7FC
S11301E000C0000000E81AE08BE0F82E9CE0E92E45
S11301F0CE018B579F4F0E944700892B09F059C0AD
S1130200CE018B579F4F0E94CF00612F0E94650241
S1130210C757DF4F8883C958D040CE018B579F4FB3
S11302200E94CF00612F0E946502C657DF4F98835A
S1130230CA58D040C557DF4F1883CB58D040C45755
S1130240DF4FF882CC58D040BE0167577F4FCE01B4
S113025001960E9419022FEF87EA91E6215080400F
S11302609040E1F700C00000CE018B579F4F0E94E1
S1130270D200612F0E946502C757DF4F8883C95897
S1130280D040CE018B579F4F0E94D200612F0E9415
S11302906502C657DF4F9883CA58D040C557DF4F11
S11302A01883CB58D040C457DF4FE882CC58D04095
S11302B014C0C457DF4F0883CC58D040C557DF4F14
S11302C00883CB58D040C657DF4F0883CA58D04064
S11302D0C757DF4F0883C958D040BE0167577F4FC7
S11302E0CE0101960E9419022FEF87EA91E6215070
S11302F080409040E1F700C000007ACFFC0184B157
S1130300866084B98FE3808386E081838BE5828372
S11303108FE4838386E684838DE685838DE78683F5
S113032087E087838FE780878FE681871286089529
S113033083B1826085B98FE891E00197F1F700C03D
S1130340000083B1846085B98FE891E00197F1F7EB
S113035000C0000083B18B7F85B98FE891E00197DD
S1130360F1F700C00000089583B18B7F85B98FE851
S113037091E00197F1F700C0000083B1826085B974
S11303808FE891E00197F1F700C0000083B1846029
S113039085B98FE891E00197F1F700C00000089556
S11303A088E090E023B12D7F25B9EFE8F1E03197A3
S11303B0F1F700C0000023B160FD02C02B7F01C033
S11303C0246025B9EFE8F1E03197F1F700C00000AF
S11303D023B1226025B9EFE8F1E03197F1F700C0CD
S11303E0000066950197F1F683B18D7F85B98FE89A
S11303F091E00197F1F700C0000083B1826085B9F4
S1130400EFE8F1E03197F1F700C0000083B18B7F92
S113041085B98FE891E00197F1F700C0000083B13E
S11304208D7F85B9EFE8F1E03197F1F700C0000066
S11304300895EF92FF920F931F93CF93DF93EC01F4
S11304407B0184B1866084B9CE010E94980164E482
S1130450CE010E94D001CE010E94B401870180EC3C
S1130460F82ECE010E9498016F2DCE010E94D0017A
S1130470F80121918F01822F90E027FF08C08C0F93
S11304809D1FFC01E058F1096081606804C0FE0111
S1130490E80FF91F6081CE010E94D001CE010E94B5
S11304A0B401F394F4ECFF12DCCFCE010E94980166
S11304B06FE8CE010E94D001CE01DF91CF911F9150
S11304C00F91FF90EF900C94B401991B79E004C054
S11304D0991F961708F0961B881F7A95C9F780957F
S10904E00895F894FFCF1B
S9030000FC
